:020000040800F2
:10000000B80400207D0100084106000865050008CD
:100010003D06000851040008250800080000000003
:100020000000000000000000000000006F06000853
:1000300063050008000000006D06000821070008A5
:100040009701000897010008970100089701000830
:100050009701000897010008970100089701000820
:10006000970100084905000897010008970100085A
:100070009701000897010008970100089701000800
:10008000970100089701000800000000050800081B
:10009000970100089701000897010008690500080A
:1000A00097010008970100089701000897010008D0
:1000B0009701000800000000970100080000000000
:1000C0009701000800000000970100089701000850
:1000D0009701000897010008970100080000000040
:1000E00000000000000000009701000897010008D0
:1000F0009701000897010008970100089701000880
:1001000097010008000000000000000097010008AF
:1001100000000000000000000000000000000000DF
:1001200000000000000000000000000000000000CF
:1001300000000000000000000000000000000000BF
:1001400000000000000000000000000000000000AF
:10015000000000000000000097010008970100085F
:100160009701000897010008DFF80CD000F05EF955
:10017000004800479B170008B80400200648804745
:1001800006480047FEE7FEE7FEE7FEE7FEE7FEE77C
:10019000FEE7FEE7FEE7FEE7290700086901000821
:1001A000F0B480EA0102D40F4200B2EB410F02D258
:1001B0000246084611464A0042D0C30DDDB2C1F3E3
:1001C000C752AD1A202D35DAC1F3160141F40002F1
:1001D00004B15242C5F1200602FA06F12A41104448
:1001E000B3EBD05F23D0C4B1012DA0EBC35009DC29
:1001F000F0BC4FF0004202EAC352DBB200F500004F
:1002000000F0E5B8400000F1807000EBC350A0F1B1
:10021000807040EAD170490009E0490841EAC071A4
:10022000A0EBC35000F50000400800EBC350F0BC49
:1002300000F0C4B86142012202EB4101001BF6E765
:10024000F0BC704781F00041AAE780F00040A7E7CA
:1002500080EA010210B502F00043400022D04A00BB
:100260001FD0010E01EB1261C0F35600C2F356021B
:1002700040F4000042F40002A0FB022000047F3999
:10028000140400D0401C50EA124001D44000491E22
:10029000C2B20C0604EBD010401C4008802A02D0E9
:1002A00003E0002010BD20F00100002900DA00204A
:1002B000184310BD30B480EA010202F0004530F06E
:1002C000004221F0004013D090B1C30DD40DC2F311
:1002D0001601C0F31600E41A41F4000140F40002D4
:1002E0007D34914201D3641C00E04900002C02DA05
:1002F00030BC002070474FF400000023914201D32E
:10030000891A034340084FEA4101F7D151B19142A4
:1003100002D14FF0004105E002D24FF0010101E0AF
:100320006FF0010103EBC450284430BC00F046B824
:1003300096230022114600F04AB800F0004220F057
:100340000040C10DC0F3160040F400007F2901DA1F
:1003500000207047962903DCC1F19601C84001E0F6
:1003600096398840002AF4D04042704720F000407F
:10037000C10DC0F3160040F400007F2901DA00200F
:100380007047962903DCC1F19601C8407047963941
:1003900088407047002801DBC0F10040002901DBE4
:1003A000C1F1004181427047002801DBC0F10040EB
:1003B000002901DBC1F10041884270470029A8BF34
:1003C0007047401C490008BF20F00100704710B47E
:1003D000B0FA80FC00FA0CF050EA010404BF10BC33
:1003E000704749B1CCF1200421FA04F411FA0CF160
:1003F00018BF012121430843A3EB0C01CB1D4FEA99
:1004000000614FEA102042BF002010BC704700EB93
:10041000C35010440029A4BF10BC7047401C4900C1
:1004200008BF20F0010010BC70470000064C074DCB
:1004300006E0E06840F0010394E8070098471034B4
:10044000AC42F6D3FFF794FE34240008542400088D
:1004500000BFFEE72DE9FF5F07460E46144638460B
:100460002169FFF7EFFE054630466169FFF7EAFEB6
:1004700003902846216AFFF7E5FE0290256229468F
:10048000A069FFF78DFEA0612D49A069FFF78CFFE1
:1004900002D22B48A06106E02A49A069FFF77AFF43
:1004A00001D22848A061E0690399FFF779FEE06175
:1004B0002349E069FFF778FF02D22148E06106E0B6
:1004C0002049E069FFF766FF01D21E48E061E0685D
:1004D0000299FFF7BDFE8246E1696068FFF7B8FE4A
:1004E0000190A169A068FFF7B3FE83462946206802
:1004F000FFF7AEFE59460090FFF752FE8146019984
:10050000FFF74EFE80465146FFF74AFE6062216DBE
:10051000606AFFF749FF02D2206D60620BE0206D38
:1005200080F000484046616AFFF73EFF03D2206D2D
:1005300080F000406062606A04B0BDE8F09F000097
:100540000000FA430000FAC310B50221002000F0B9
:10055000ABFC28B10221002000F09AFC00F040FB27
:1005600010BD704700BFFEE710B52A492A4801F0C8
:10057000D3F820B12749284801F0B8F849E02749C5
:10058000254801F0C9F8A0B1234801F095F82449A5
:100590000A680968491C224B196022498854184688
:1005A0000068052835D100201946086000F078FE63
:1005B0002FE01D49184801F0AFF890B11B480268C0
:1005C0000068401C194B18601948815C124801F002
:1005D00077F81648006805281BD1002013490860E9
:1005E00017E014490C4801F097F840B10A4801F0AF
:1005F000CFF800200A4908600C49086009E00E495C
:10060000054801F089F820B1002005490860074934
:10061000086010BD090101050054004009010605EC
:100620000800002010000020090107050400002038
:10063000180000200901040508010A0500BFFEE7B3
:100640007047000010B5002807DA0A07140E054AA3
:1006500000F00F031B1FD45403E00A07130E024AD5
:10066000135410BD18ED00E000E400E0704770473F
:1006700081F83C007047000070B504460D4695F8BF
:100680003C0028B3002C11DB00221146164801F073
:100690003EFDB4F57A7F02DD4FF47A7000E020462B
:1006A00002460121104801F032FD1BE00022012129
:1006B0000D4801F02CFD14F57A7F02DA4FF47A70C0
:1006C00000E0604202460021074801F020FD09E0F9
:1006D00000221146044801F01AFD002201210248BF
:1006E00001F015FD70BD00000004004070B5054626
:1006F0000C464FF07E512846FFF756FE02D24FF0CF
:100700007E5505E000212846FFF744FE00D2002573
:1007100002492846FFF79CFD206570BD00007A4421
:1007200010B500F051FA10BD08B53248006840F02D
:1007300001003049086000BF2E48006800F0020048
:100740000028F9D000BF2B48406840F080002949BC
:1007500048600020009002E00098401C0090009843
:100760005028F9D32348406840F090002149486060
:100770000020009002E00098401C00900098502853
:10078000F9D300BF1B48406820F0030019494860B6
:10079000084600681849084016490860084640683D
:1007A0001649084013494860084640681449084003
:1007B000104948600846406820F4400048600846F8
:1007C000C06A20F00F00C8620846006B40F2431177
:1007D0008843084908630846406B20F001004863DD
:1007E0000020886001F06EFA00214FF0006001F0F7
:1007F00049F808BD00100240FFFFF2FE0C00FF08A0
:10080000FFFFC0F710B50121054801F092FD28B1A6
:100810000121034801F08AFD01F080FA10BD0000BB
:100820000020004000BFFEE702E008C8121F08C118
:10083000002AFAD170477047002001E001C1121F61
:10084000002AFBD1704700000D48006840F0080006
:100850000B49086000BF0A48006800F00800002843
:10086000F9D10748006840F004000549086000BF5E
:100870000348006800F004000028F9D17047000028
:100880000824014010B5012802D0022825D110E02B
:10089000134A126822F47002114B1A601A46126849
:1008A0004B1E4FF4700404EA03531A430C4B1A60B6
:1008B00014E00B4A0C32126822F44012084B0C333D
:1008C0001A601A4612684B1E4FF4401404EA035390
:1008D0001A43034B0C331A6000E000BF00BF10BD89
:1008E0002C24014010B51023002203214FF090402A
:1008F00000F08EFC01210846FFF7C4FF0522042109
:10090000002000F095F80121084600F047F84FF468
:100910006021012000F06CF8002000F00BF800F0DE
:1009200025F80121022000F007F900F029F8FFF76F
:100930008BFF10BD30B10749096841F40061054AD9
:10094000116005E00349096821F40061014A116062
:1009500070470000082401400348006820F00100AF
:1009600001490860704700000824014003480068FE
:1009700040F480700149086070470000082401407D
:100980000548006800F0010028B90348006840F0FD
:1009900001000149086070470824014091B100F04E
:1009A00001022AB1114A126842F480120F4B1A60F8
:1009B00000F00202C2B10D4A126842F400420B4B31
:1009C0001A6011E000F001022AB1084A126822F40C
:1009D0008012064B1A6000F002022AB1034A126824
:1009E00022F40042014B1A607047000008240140C5
:1009F000012802D0022816D10AE00C4A126822F41B
:100A000060220A4B1A601A4612680A431A600BE009
:100A1000064A126822F4E042044B1A601A46126831
:100A20000A431A6000E000BF00BF7047082401407D
:100A300070B51446122900D1002106280ED2324D7D
:100A40002A6800EB80061F25B540AA4300EB80050D
:100A500001FA05F52A432C4D2A602AE00C2812D20F
:100A6000294D2D1F2A68851F05EB85061F25B540DA
:100A7000AA43851F05EB850501FA05F52A43224D9A
:100A80002D1F2A6015E0102813D21F4D083D2A683B
:100A9000A0F10C0505EB85061F25B540AA43A0F182
:100AA0000C0505EB850501FA05F52A43164D083DB1
:100AB0002A600A2910D2144D243D2B6801EB41060F
:100AC0000725B540AB4301EB410504FA05F52B437F
:100AD0000D4D243D2B6015E0122913D20A4D283DFF
:100AE0002B68A1F10A0505EB45060725B540AB4388
:100AF000A1F10A0505EB450504FA05F52B43024D66
:100B0000283D2B6070BD00003424014000F001013D
:100B100029B10849096841F48001064A116000F0D2
:100B2000020129B10349096841F40011014A116029
:100B30007047000008240140E9B100F480722AB136
:100B40001C4A126842F480721A4B1A6000F48062E8
:100B50002AB1184A126842F48062164B1A6000F0FB
:100B600002022AB3134A121D126842F00202114B0C
:100B70001B1D1A601CE000F480722AB10D4A126835
:100B800022F480720B4B1A6000F480622AB1094A89
:100B9000126822F48062074B1A6000F002023AB138
:100BA000044A121D126822F00202024B1B1D1A6039
:100BB000704700000424014010B5FFF7E1FE01205A
:100BC000FFF7A4FF10BD00000448006820B10348EF
:100BD0000068401E014908607047000000000020C6
:100BE00010B5FFF7B9FE00200A490860002409E0AB
:100BF000094830F8140007490968084405490860A5
:100C0000601CC4B2082CF3DB02480068C00801492C
:100C1000086010BD0C000020A800002000EB80013F
:100C2000064A02EB8101896821F0010100EB800294
:100C3000024B03EB8202916070470000000002400B
:100C400000EB8001064A02EB8101896841F0010155
:100C500000EB8002024B03EB8202916070470000C0
:100C60000000024000EB8001064A02EB8101896826
:100C700041F0200100EB8002024B03EB8202916005
:100C8000704700000000024000B589B0002000F06D
:100C900031F800208DF819001448049001208DF8D7
:100CA000180080020590082007901148019000204C
:100CB0008DF80C004FF4807002900020089001A97C
:100CC00000F046F80020FFF7CDFF002000F032F9D9
:100CD0000221002000F0CAF800220221092000F0C1
:100CE00071FD0020FFF7ACFF09B000BDA800002097
:100CF0004C24014000EB8001144A02EB8101896819
:100D000021F0010100EB8002104B03EB82029160A5
:100D1000002100EB800203EB8202916000EB800275
:100D200003EB8202D16000EB800203EB82021161CF
:100D300000EB800203EB820251611946496883008F
:100D40000F229A401143014A51607047000002404F
:100D500070B504460D462046FFF760FF04EB8401A2
:100D6000414A02EB81012868086104EB840102EB2F
:100D70008101E8684861288B80B204EB840102EBB2
:100D80008101C86004EB8400114601EB8000866895
:100D900026F47C56296968680843E96908430643D4
:100DA00004EB8400114601EB80008660287A01285C
:100DB0000CD104EB840001EB8000806840F040001F
:100DC00004EB840102EB810188600DE004EB8400F8
:100DD000254901EB8000806820F0400004EB84018D
:100DE000214A02EB81018860287D01280ED104EBA5
:100DF00084001D4901EB8000806840F0800004EB16
:100E00008401194A02EB810188600DE004EB840043
:100E1000154901EB8000806820F0800004EB84011C
:100E2000114A02EB81018860687D70B904EB84008F
:100E30000D4901EB8000806820F0100004EB840174
:100E4000094A02EB810188600DE004EB8400064949
:100E500001EB8000806840F0100004EB8401024A3E
:100E600002EB8101886070BD0000024010B500EB0C
:100E70008002064B03EB820292680A4300EB800378
:100E8000024C04EB83039A6010BD00000000024096
:100E9000044A5268830001FA03F31A43014B5A6073
:100EA000704700000000024030B5024600230024D5
:100EB000022904D0042912D0082930D11FE01C488F
:100EC0000068950001FA05F500EA050402EB8200CE
:100ED000174D05EB8000806800F0020320E0144805
:100EE0000068950001FA05F500EA050402EB8200AE
:100EF0000F4D05EB8000806800F0040310E00C4803
:100F00000068950001FA05F500EA050402EB82008D
:100F1000074D05EB8000806800F0080300E000BF8B
:100F200000BF14B10BB1012030BD0020FCE7000070
:100F30000000024000EB8001064A02EB8101896853
:100F400021F4804100EB8002024B03EB82029160AE
:100F500070470000000002400348006940F0800034
:100F600001490861704700000020024070B5044646
:100F70004FF4702000F02EF80546B5B90C48006912
:100F800040F002000A49086108464461006940F0E7
:100F9000400008614FF4702000F01CF8054604483A
:100FA000006920F0020002490861284670BD000077
:100FB0000020024070B503460D46054E9C192046A0
:100FC00002E0066840C5001DA6188642F9D870BD2B
:100FD000003C000870B50546012400BF00F00CF885
:100FE00004466D1E012C01D1002DF7D1012C00D13A
:100FF0000424204670BD000000200A49C96801F0A1
:10100000010109B101200CE00649C96801F0100195
:1010100009B1032005E00349C96801F0040101B1E9
:1010200002207047002002400548006900F080005F
:1010300020B10448024948600348486070470000F6
:101040000020024023016745AB89EFCD70B504460F
:101050000D464FF47020FFF7BDFF06468EB90A48D3
:10106000006940F001000849086125604FF47020D4
:10107000FFF7B0FF06460448006920F0010002496E
:101080000861304670BD0000002002402DE9F05F8D
:10109000804689461446CA460025AB46184808EBE8
:1010A0000006002704F0030040BBFFF7BDFF01204E
:1010B00000EB942B00BF07E011494A1402FB051016
:1010C000FFF754FF07466D1C5D4501D2002FF3D09A
:1010D00006E05AF8041B3046FFF7B8FF0746361DF6
:1010E00007482044B04201D9002FF2D0FFF734FF67
:1010F00017B10120BDE8F09F0020FBE70120F9E7D0
:10110000003C0008F0B503461C6A5D6A00200DE053
:101110000126864016403EB187000F26BE40B443EC
:10112000860001FA06F63443461CB0B20828EFD315
:10113000082011E00126864016405EB1A0F10806A5
:10114000B7000F26BE40B543A0F10806B60001FA6D
:1011500006F63543461CB0B21028EBD31C625D6224
:10116000F0BD8162704781617047000010B50323B4
:1011700000220121254800F04BF80623032200211C
:10118000224800F06CF803212048FFF7EAFFC02353
:10119000002202214FF0904000F03AF8C0230322D1
:1011A00000214FF0904000F05AF8C02201214FF08A
:1011B0009040FFF7A7FF4FF4C063012202214FF0D8
:1011C000904000F025F84FF4C063032201214FF056
:1011D000904000F044F84FF4C06204214FF090407A
:1011E000FFF790FF0123002219464FF0904000F0D6
:1011F0000FF80123032200214FF0904000F02FF858
:1012000001214FF09040FFF7AEFF10BD00140048E1
:10121000F0B504460D4616462168E268002019E044
:10122000012787401F409FB14FEA400C032707FA70
:101230000CF7B943470005FA07F739434FEA400C6A
:10124000032707FA0CF7BA43470006FA07F73A43B1
:10125000471CB8B21028E3D32160E260F0BDF0B5BE
:101260000C461546012C03D146681E43466002E039
:1012700046689E434660826800210DE001268E404C
:101280001E403EB14F000326BE40B2434E0005FA59
:1012900006F632434E1CB1B21029EFD38260F0BD86
:1012A00070B5AB48D0F801600078AA490870A8482A
:1012B0000078242874D012DC12285BD008DC0128C6
:1012C00020D002282CD0032838D0112869D145E03D
:1012D00021285BD022286DD02328F7D183E0322843
:1012E00073D008DC252871D0262870D027286FD02D
:1012F0003128EBD1D6E033286BD034286AD0FF28D0
:10130000E4D117E19448066100F12C05002404E0C3
:10131000295D904A601C1154641C042CF8DB15E113
:101320008D48466100F13005002404E0295D894ABA
:10133000601C1154641C042CF8DB07E1864930461C
:10134000FFF7D4F9844D2C35002404E0295D814A4F
:10135000601C1154641C042CF8DBF7E07E482C3030
:10136000002404E0025D7B4B611C5A54641C042C75
:10137000F8DBEBE078483030002404E0025D754B88
:10138000611C5A54641C042CF8DBDFE07048407880
:1013900072494870022008706F4D2C35002406E019
:1013A00034E0D2E0295D6B4A601C1154641C042CAB
:1013B000F8DBCBE0684806606848C66102206749F0
:1013C0000870654D2C3500240AE07EE031E043E0F2
:1013D00057E08DE09DE0295D5E4A601C1154641C5D
:1013E000042CF8DBB2E05C4886605C484662022070
:1013F0005A490870584D2C35002404E0295D554A9F
:10140000601C1154641C042CF8DB9FE052484660B9
:10141000524806620220514908704F4D2C35002475
:1014200004E0295D4B4A601C1154641C042CF8DB59
:101430008CE04948C66049488662022047490870E6
:10144000454D2C35002404E0295D424A601C1154AE
:10145000641C042CF8DB79E03F493046FFF746F97D
:101460003E48866002203D4908703B4D2C350024E3
:1014700004E0295D374A601C1154641C042CF8DB1D
:1014800064E036484660022034490870324D2C35FD
:10149000002404E0295D2F4A601C1154641C042CB4
:1014A000F8DB53E03046FEF761FF2C49088202204A
:1014B0000870294D2C35002404E0295D254A601C64
:1014C0001154641C042CF8DB40E03046FEF74EFF5C
:1014D00022494882022008701F4D2C35002404E068
:1014E000295D1C4A601C1154641C042CF8DB2DE09F
:1014F0001A484661022019490870174D2C350024FE
:1015000004E0295D134A601C1154641C042CF8DBB0
:101510001CE0124886610220104908700E4D2C35DF
:10152000002404E0295D0B4A601C1154641C042C47
:10153000F8DB0BE00649497809B1012100E0002100
:1015400008460549FFF794F800E000BF00BF70BDF2
:101550001000002018000020240000207800002047
:10156000012904D1026842F48062026003E002684B
:1015700022F48062026070472DE9F05F04460E4657
:101580009346022000F0DCF907463148B7FBF0F93A
:10159000B9F1480F01D34FF04809D4F804A02AF05C
:1015A0007F0A4AEA090AC4F804A02A4886421ED8DB
:1015B0002748B7FBF0F000F10108B8F1480F02D35B
:1015C0004820206207E0B8F1020F02D80220206212
:1015D00001E0C4F820807000B7FBF0F5042D00D2C4
:1015E0000425E069C5F30B010843E0612EE01A48C9
:1015F00086422BD84FF4967009FB00F04FF47A71B5
:10160000B0FBF1F0401C2062BBF1000F08D106EBEB
:101610004600B7FBF0F5E06920F48040E06109E0A6
:1016200006EBC60000EB0610B7FBF0F5E06940F4EE
:101630008040E061C5F30B0008B945F00105E069A1
:1016400040F40040E061E0692843E061BDE8F09FBC
:1016500040420F00A0860100801A060010B5044623
:10166000002213491348FFF787FF23460022114643
:10167000104800F07FF80F4800F025F801210D48D0
:10168000FFF76EFF01220021172000F09BF840F2C7
:101690000911084800F01CF84FF48471054800F067
:1016A00017F84FF48571034800F012F810BD0000E0
:1016B000801A06000054004001460869C0B2704715
:1016C000CAB202617047016841F0010101607047D0
:1016D00010B500EB9112126801F01F040123A34022
:1016E0001A4300EB91131A6010BD000010B5094AAF
:1016F000914202D1426982690AE000EB915212687C
:10170000C1F304440123A3409A4300EB91531A60B0
:1017100010BD000009010105F0B5024600230024B8
:10172000506800F48065C1F38910105801F01F075C
:101730000126BE4000EA060302EB91500068C1F3A7
:1017400004470126BE4000EA06040848814202D050
:101750000748814204D113B10DB1012300E00023F9
:1017600014B10BB10120F0BD0020FCE70901060512
:101770000901070530B50C460021016821F002017E
:1017800021430160C3F3090342EA0305856030BDCC
:10179000016841F40071016070474FF4A06000F0EF
:1017A00067F800F093FA00F01FFAFFF7DFFCFFF78D
:1017B0006BFAFFF797F800F023FB00F0F9FA00F05E
:1017C000C5FD00002DE9F04103460D4616460024F4
:1017D0000027A0462448006800F4E060B0F5A06F40
:1017E00015D006DCB0F5407F18D0B0F5806F19D168
:1017F00010E0B0F5C06F06D0B0F5E06F12D1002751
:101800004FF0040815E001274FF0030811E002270C
:10181000B8460EE003274FF001080AE004274FF016
:10182000000806E04FF4A06000F022F80227B84656
:1018300000BF00BFC7F1040005FA00F4C8F10401BD
:101840000F20C8403040044324010848C45403F02A
:101850001F01012088405911890001F1E021C1F8E0
:101860000001BDE8F08100000CED00E000E400E0C4
:1018700002490143024A1160704700000000FA0566
:101880000CED00E0064A0A400243064B1A6000BF16
:1018900000BF00BFBFF34F8F00BF00BF00BF704746
:1018A00080FFFF1F08ED00E02449496821F4404112
:1018B000224A51601146096B21F480711163052899
:1018C00039D2DFE800F0030A14202C001B49096B11
:1018D00021F48071194A11632EE018494968174AAA
:1018E00051601146096B41F48071116324E0134982
:1018F000496841F48041114A51601146096B41F435
:101900008071116318E00D49496841F400410B4AA8
:1019100051601146096B41F4807111630CE0074975
:10192000496841F44041054A51601146096B41F450
:101930008071116300E000BF00BF704700100240DB
:101940002DE9F04F8FB004464FF0000CE046002028
:10195000002200258146CDF838900021CDF8349042
:10196000CDF83090CDF82C900023CDF82890CDF80C
:101970002490CDF82090002600270FF24C2999E8FA
:10198000004CD9F80C90CDE905BECDF810A0CDF8EB
:101990001C900FF2382ADAE9009ACDE9029A0FF288
:1019A0002C2ADAE9009ACDE9009ADFF82C92D9F8CE
:1019B0000490C9F3810CBCF1000F06D0BCF1010FFB
:1019C00005D0BCF1020F3FD103E0844A3EE0834AD8
:1019D0003CE0DFF80492D9F80490C9F38343DFF8C0
:1019E000F891D9F80490C9F3C069CDF82890DDF8D2
:1019F0002890B9F1000F01D0113300E09B1CDFF8F3
:101A0000D891D9F80490C9F30049CDF82490DDF8B5
:101A10002490B9F1000F12D0DFF8BC91D9F82C90C6
:101A200009F00F0909F10109CDF82090DFF8ACA108
:101A3000DDF82090BAFBF9F909FB03F203E0DFF8C7
:101A4000A09103FB09F201E0644A00BF00BFDFF888
:101A50008891D9F80490C9F303160DF1100919F80B
:101A6000067022FA07F5DFF87091D9F80490C9F3EF
:101A700002260DF1080919F8067025FA07F9CDF8C4
:101A80003890DFF85491D9F80490C9F3C2261DF8B4
:101A9000067025FA07F1072C72D2DFE804F004067D
:101AA000080A0C475B00104689E0284687E00E983C
:101AB00085E0084683E0DFF82091D9F8309009F4FA
:101AC0008079B9F5807F04D0DFF81891CDF8349093
:101AD0002AE0DFF80491D9F80490C9F38138B8F10D
:101AE000000F09D0B8F1010F0BD0B8F1020F0DD0E3
:101AF000B8F1030F16D110E04FEA5109CDF8349038
:101B000011E04FEA9109CDF834900CE04FF006094E
:101B1000B1FBF9F9CDF8349005E04FEAD109CDF8E1
:101B2000349000E000BF00BF0D9848E0DFF8A890B7
:101B3000D9F8309009F04009B9F1400F04D048F2CB
:101B40001209CDF8309003E04FF40049CDF8309001
:101B50000C9834E0DFF88090D9F8309009F0030950
:101B6000B9F1000F01D10B9126E0DFF86C90D9F8A4
:101B7000309009F00309B9F1010F02D10B921BE07B
:101B80001CE0DFF85490D9F8309009F00309B9F15E
:101B9000020F04D14FF40049CDF82C900CE0DFF88F
:101BA0003890D9F8309009F00309B9F1030F03D147
:101BB000DFF82890CDF82C900B9800E000BF00BF14
:101BC0000FB0BDE8F08F0000000000000000000032
:101BD00001020304060708090010024000127A00FF
:101BE00000093D00809FD50010B540F2115000F073
:101BF0001DF840F2165000F019F840F2017000F0A4
:101C000015F84FF4E16000F011F840F2157000F0A3
:101C10000DF84FF4A06000F009F840F2096000F000
:101C200005F80320FFF740FE10BD0000064A02EB56
:101C30009011096800F01F0301229A401143024BE2
:101C400003EB90121160704700100240064A02EB4D
:101C50009011096800F01F0301229A409143024B42
:101C600003EB90121160704700100240064A02EB2D
:101C70009011096800F01F0301229A401143024BA2
:101C800003EB901211607047001002400C4840684E
:101C90000B4948600846406848600846406848600C
:101CA0000846406820F003004860084640684860E5
:101CB00000BF0348406800200028FAD170470000A8
:101CC0000010024010B5FFF7E1FF10BD10B512483B
:101CD00000684FF47A71B0FBF1F4601EB0F1807FC0
:101CE00001D301200FE0601E4FF0E02148610F2179
:101CF0004FF0FF30FEF7A6FC00204FF0E021886196
:101D000007200861002008B100BFFEE70021481E3F
:101D1000FEF798FC10BD0000200000202DE9F047E0
:101D2000FEF74AFF2049088DFEF702FB07461E49D1
:101D3000488DFEF7FDFA80463946FEF783FA0546E0
:101D40001949088DFEF7F4FA814618490888FEF70C
:101D5000EFFA82464946FEF775FA0746124A516B7A
:101D6000906BFEF76FFA80463946FEF771FA064629
:101D70002946FEF79FFA04460B48416B2046FEF7C2
:101D80000FFA0949C8620A46C86A0021FEF762FBD9
:101D90000549486AFEF7D1FA04B203492046FEF726
:101DA0006BFCBDE8F087000024000020A8000020A4
:101DB0001FB5124800F0ECF90720ADF80000002034
:101DC000ADF80200ADF8040041F287300290002027
:101DD000ADF806008DF80C006946084800F04CFA92
:101DE0000121064800F09EFA002203211320FFF78C
:101DF000E9FC024800F03AFA1FBD00000020004054
:101E000000B589B0254800F0C3F90020ADF8040002
:101E1000ADF80600ADF8080040F2E730039000206E
:101E2000ADF80A008DF8100001A91C4800F024FA52
:101E30000020ADF81A000120059005AA00211748DE
:101E400000F034F805AA0121144800F02FF8002210
:101E50001146124800F05BF9002201210F4800F002
:101E600056F9602200210D4800F024F9602201217A
:101E70000A4800F01FF900221146084800F05AF9FC
:101E800000220121054800F055F9044800F008F847
:101E9000024800F0EBF909B000BD0000000400406A
:101EA000016841F0800101607047000010B531B158
:101EB000012945D002297DD003297CD1CBE0036ADA
:101EC00023F001030362836923F003038361036A40
:101ED000146823430362036A23F002030362036A64
:101EE000D488234303626F4B984208D06E4B9842CC
:101EF00005D06E4B984202D06D4B98421FD1036AB9
:101F000023F004030362036A948823430362036A91
:101F100023F008030362036A1489234303624368BE
:101F200023F48073436043685489234343604368C8
:101F300023F4007343604368948923434360AEE015
:101F4000036A23F010030362836923F440738361FF
:101F5000036A146843EA04130362036A23F020034C
:101F60000362036AD48843EA041303624D4B984228
:101F700026D1036A23F040030362036A948843EA8C
:101F800004130362036A23F080030362036A148963
:101F900043EA04130362436823F4806343604368A5
:101FA000548943EA84034360436823F40063436035
:101FB000436801E011E071E0948943EA84034360DF
:101FC000394B984208D1436823F4806343604368E7
:101FD000548943EA8403436061E0036A23F4807315
:101FE0000362C36923F00303C361036A146843EA0D
:101FF00004230362036A23F400730362036AD48830
:1020000043EA04230362274B984223D1036A23F453
:1020100080630362036A948843EA04230362036AC9
:1020200023F400630362036A148943EA042303620E
:10203000436823F4805343604368548943EA04139C
:102040004360436823F4005343604368948943EA40
:102050000413436023E0036A23F480530362C369DB
:1020600023F44073C361036A146843EA04330362D0
:10207000036A23F400530362036AD48843EA0433F7
:102080000362084B984208D1436823F480434360BD
:102090004368548943EA8413436000E000BF00BFF3
:1020A00010BD0000002C01400040014000440140F0
:1020B0000048014031B101290CD0022913D0032975
:1020C00022D118E0836923F070038361836913438D
:1020D00083611AE0836923F4E0438361836943EAFF
:1020E0000223836111E0C36923F07003C361C369F4
:1020F0001343C36109E0C36923F4E043C361C369C7
:1021000043EA0223C36100E000BF00BF704731B162
:10211000012906D0022906D0032908D105E042632F
:1021200006E0826304E0C26302E0026400E000BFF4
:1021300000BF704731B101290CD0022913D0032907
:1021400022D118E0836923F0080383618369134374
:1021500083611AE0836923F400638361836943EA3E
:102160000223836111E0C36923F00803C361C369DB
:102170001343C36109E0C36923F40063C361C36906
:1021800043EA0223C36100E000BF00BF70470000C4
:1021900010B504463349601A8C4217D00CDCB4F1F8
:1021A000804F1CD03048204410B3B0F5406F28D089
:1021B000B0F5E05F52D12DE0B0F5A05F33D0B0F5BF
:1021C000C05F39D0B0F5E05F48D13EE040F20B305F
:1021D000FFF74CFD40F20B30FFF738FD3FE04FF4C6
:1021E0008060FFF743FD4FF48060FFF72FFD36E07E
:1021F00040F20140FFF73AFD40F20140FFF726FDB3
:102200002DE040F20440FFF731FD40F20440FFF7BB
:102210001DFD24E04FF48160FFF728FD4FF481603D
:10222000FFF714FD1BE04FF44470FFF71FFD4FF460
:102230004470FFF70BFD12E040F21130FFF716FD7E
:1022400040F21130FFF702FD09E040F21230FFF7D3
:102250000DFD40F21230FFF7F9FC00E000BF00BFB7
:1022600010BD0000002C014000FCFFBF016841F0E0
:1022700001010160704700000A888262234A90428F
:1022800005D0B0F1804F02D0214A90420BD10268B4
:1022900022F07002026002684B881A4302600268F2
:1022A0008B881A4302608A68C262184A904211D031
:1022B000B0F1804F0ED0164A90420BD0154A904292
:1022C00008D0154A904205D0144A904202D0144AD0
:1022D000904207D1026822F4407202600268CB8803
:1022E0001A430260094A904208D00B4A904205D036
:1022F0000A4A904202D00A4A904201D10A7B026304
:10230000426942F00102426170470000002C014026
:102310000004004000200040004001400044014013
:1023200000480140C2680A43C2607047CA43026164
:1023300070470246D06800EA01031069084010B1F6
:102340000BB1012070470020FCE700004022324919
:102350000020FEF72FFE30480078012823D001200E
:102360002D4908700C2048702C4848604FF07C5074
:1023700088600020C86008824FF4805048820020A6
:102380004861274888612748C8614FF07C5008623F
:102390002548486225488862012081F82C004022A7
:1023A0000020FEF773FE1C4988682149FEF79EF95C
:1023B000194840691E494863174880698863164870
:1023C000008A08851448408A48851348C069086017
:1023D0001148406A88601048006A48600E48806A68
:1023E000C8600D48406808610B4991F82C001049FD
:1023F000FEF73EF908494878FFF730F90AE0064849
:102400000078022806D101200349087040220020EC
:10241000FEF73CFEF3E70000780000200000B44225
:10242000000061430000F041CDCCCC3D00001643DC
:102430002400002054240008000000202400000094
:1024400028080008782400082400002094040000D4
:102450003808000800000000000000000000000034
:10246000000000000000000000000000000000006C
:082470000000000000127A00D8
:040000050800017D71
:00000001FF
